{
  "contractName": "AdditionGame",
  "abi": [
    {
      "constant": true,
      "inputs": [],
      "name": "owner",
      "outputs": [
        {
          "name": "",
          "type": "address"
        }
      ],
      "payable": false,
      "stateMutability": "view",
      "type": "function"
    },
    {
      "inputs": [],
      "payable": false,
      "stateMutability": "nonpayable",
      "type": "constructor"
    },
    {
      "constant": true,
      "inputs": [],
      "name": "getBalance",
      "outputs": [
        {
          "name": "",
          "type": "uint256"
        }
      ],
      "payable": false,
      "stateMutability": "view",
      "type": "function"
    },
    {
      "constant": false,
      "inputs": [],
      "name": "deposit",
      "outputs": [],
      "payable": true,
      "stateMutability": "payable",
      "type": "function"
    },
    {
      "constant": false,
      "inputs": [
        {
          "name": "_value",
          "type": "uint256"
        }
      ],
      "name": "transfer",
      "outputs": [
        {
          "name": "",
          "type": "bool"
        }
      ],
      "payable": false,
      "stateMutability": "nonpayable",
      "type": "function"
    }
  ],
  "bytecode": "0x608060405234801561001057600080fd5b50336000806101000a81548173ffffffffffffffffffffffffffffffffffffffff021916908373ffffffffffffffffffffffffffffffffffffffff16021790555061021d806100606000396000f300608060405260043610610062576000357c0100000000000000000000000000000000000000000000000000000000900463ffffffff16806312065fe01461006757806312514bba146100925780638da5cb5b146100d7578063d0e30db01461012e575b600080fd5b34801561007357600080fd5b5061007c610138565b6040518082815260200191505060405180910390f35b34801561009e57600080fd5b506100bd60048036038101908080359060200190929190505050610157565b604051808215151515815260200191505060405180910390f35b3480156100e357600080fd5b506100ec6101ca565b604051808273ffffffffffffffffffffffffffffffffffffffff1673ffffffffffffffffffffffffffffffffffffffff16815260200191505060405180910390f35b6101366101ef565b005b60003073ffffffffffffffffffffffffffffffffffffffff1631905090565b60008060009054906101000a900473ffffffffffffffffffffffffffffffffffffffff1673ffffffffffffffffffffffffffffffffffffffff166108fc839081150290604051600060405180830381858888f193505050501580156101c0573d6000803e3d6000fd5b5060019050919050565b6000809054906101000a900473ffffffffffffffffffffffffffffffffffffffff1681565b5600a165627a7a72305820e4140f600adf03a262add0161e268c8371f8fbc20e3fffa6b70dc8ce8ef0e77c0029",
  "source": "pragma solidity ^0.4.24;\r\n\r\ncontract AdditionGame {\r\n    address public owner;\r\n\r\n    constructor() public {\r\n        owner = msg.sender;\r\n    }\r\n\r\n    function getBalance() public view returns (uint) {\r\n        return address(this).balance;\r\n    }\r\n\r\n    function deposit() public payable {  \r\n        // require(msg.sender == owner);\r\n    }\r\n  \r\n    // function transfer(uint _value) public returns (bool) {\r\n    //     // require(getBalance() >= _value);\r\n    //     msg.sender.transfer(_value);\r\n    //     return true;\r\n    // }\r\n\r\n    function transfer(uint _value) public returns (bool) {\r\n        // require(getBalance() >= _value);\r\n        owner.transfer(_value);\r\n        return true;\r\n    }\r\n\r\n    // function deposit_to_Owner() public payable {\r\n\r\n    // }\r\n}\r\n",
  "sourcePath": "C:\\Users\\eunji\\Desktop\\blockchain_practice\\practice\\contracts\\AdditionGame.sol",
  "compiler": {
    "name": "solc",
    "version": "0.4.25+commit.59dbf8f1.Emscripten.clang"
  },
  "schemaVersion": "2.0.2",
  "updatedAt": "2019-07-25T05:32:44.319Z"
}